{"abi":[{"type":"constructor","inputs":[],"stateMutability":"nonpayable"},{"type":"function","name":"balances","inputs":[{"name":"","type":"address","internalType":"address"}],"outputs":[{"name":"","type":"uint256","internalType":"uint256"}],"stateMutability":"view"},{"type":"function","name":"deposit","inputs":[],"outputs":[],"stateMutability":"payable"},{"type":"function","name":"getBalance","inputs":[{"name":"user","type":"address","internalType":"address"}],"outputs":[{"name":"","type":"uint256","internalType":"uint256"}],"stateMutability":"view"},{"type":"function","name":"owner","inputs":[],"outputs":[{"name":"","type":"address","internalType":"address"}],"stateMutability":"view"},{"type":"function","name":"withdraw","inputs":[{"name":"amount","type":"uint256","internalType":"uint256"}],"outputs":[],"stateMutability":"nonpayable"}],"bytecode":{"object":"0x608060405234801561000f575f80fd5b50335f806101000a81548173ffffffffffffffffffffffffffffffffffffffff021916908373ffffffffffffffffffffffffffffffffffffffff1602179055506105868061005c5f395ff3fe608060405260043610610049575f3560e01c806327e235e31461004d5780632e1a7d4d146100895780638da5cb5b146100b1578063d0e30db0146100db578063f8b2cb4f146100e5575b5f80fd5b348015610058575f80fd5b50610073600480360381019061006e919061036c565b610121565b60405161008091906103af565b60405180910390f35b348015610094575f80fd5b506100af60048036038101906100aa91906103f2565b610136565b005b3480156100bc575f80fd5b506100c5610250565b6040516100d2919061042c565b60405180910390f35b6100e3610273565b005b3480156100f0575f80fd5b5061010b6004803603810190610106919061036c565b6102c8565b60405161011891906103af565b60405180910390f35b6001602052805f5260405f205f915090505481565b8060015f3373ffffffffffffffffffffffffffffffffffffffff1673ffffffffffffffffffffffffffffffffffffffff1681526020019081526020015f205410156101b6576040517f08c379a00000000000000000000000000000000000000000000000000000000081526004016101ad9061049f565b60405180910390fd5b8060015f3373ffffffffffffffffffffffffffffffffffffffff1673ffffffffffffffffffffffffffffffffffffffff1681526020019081526020015f205f82825461020291906104ea565b925050819055503373ffffffffffffffffffffffffffffffffffffffff166108fc8290811502906040515f60405180830381858888f1935050505015801561024c573d5f803e3d5ffd5b5050565b5f8054906101000a900473ffffffffffffffffffffffffffffffffffffffff1681565b3460015f3373ffffffffffffffffffffffffffffffffffffffff1673ffffffffffffffffffffffffffffffffffffffff1681526020019081526020015f205f8282546102bf919061051d565b92505081905550565b5f60015f8373ffffffffffffffffffffffffffffffffffffffff1673ffffffffffffffffffffffffffffffffffffffff1681526020019081526020015f20549050919050565b5f80fd5b5f73ffffffffffffffffffffffffffffffffffffffff82169050919050565b5f61033b82610312565b9050919050565b61034b81610331565b8114610355575f80fd5b50565b5f8135905061036681610342565b92915050565b5f602082840312156103815761038061030e565b5b5f61038e84828501610358565b91505092915050565b5f819050919050565b6103a981610397565b82525050565b5f6020820190506103c25f8301846103a0565b92915050565b6103d181610397565b81146103db575f80fd5b50565b5f813590506103ec816103c8565b92915050565b5f602082840312156104075761040661030e565b5b5f610414848285016103de565b91505092915050565b61042681610331565b82525050565b5f60208201905061043f5f83018461041d565b92915050565b5f82825260208201905092915050565b7f4e6f7420656e6f7567682062616c616e636500000000000000000000000000005f82015250565b5f610489601283610445565b915061049482610455565b602082019050919050565b5f6020820190508181035f8301526104b68161047d565b9050919050565b7f4e487b71000000000000000000000000000000000000000000000000000000005f52601160045260245ffd5b5f6104f482610397565b91506104ff83610397565b9250828203905081811115610517576105166104bd565b5b92915050565b5f61052782610397565b915061053283610397565b925082820190508082111561054a576105496104bd565b5b9291505056fea26469706673582212202fe6b718410fa89eaa6702b2523508bb296b5060f0524fd22e25e990b7f3f23264736f6c63430008140033","linkReferences":{}},"methodIdentifiers":{"balances(address)":"27e235e3","deposit()":"d0e30db0","getBalance(address)":"f8b2cb4f","owner()":"8da5cb5b","withdraw(uint256)":"2e1a7d4d"},"id":3}